:020000040000FA
:100000000C9462000C948A000C948A000C948A0070
:100010000C948A000C948A000C948A000C948A0038
:100020000C948A000C948A000C948A000C948A0028
:100030000C948A000C948A000C948A000C948A0018
:100040000C9496010C948A000C948A000C948A00FB
:100050000C948A000C948A000C948A000C948A00F8
:100060000C948A000C948A000000000023002600F3
:10007000290000000000240027002A0000000000E2
:10008000250028002B0004040404040404040202D4
:100090000202020203030303030301020408102007
:1000A0004080010204081020010204081020000012
:1000B0000008000201000003040700000000000027
:1000C00000005E0311241FBECFEFD8E0DEBFCDBF1E
:1000D00011E0A0E0B1E0ECEFF6E002C005900D9277
:1000E000AC31B107D9F721E0ACE1B1E001C01D921C
:1000F000AC33B207E1F710E0C2E6D0E004C02197CC
:10010000FE010E947103C136D107C9F70E94E001C8
:100110000C947C030C940000833081F028F481302F
:1001200099F08230A9F008958730A9F08830C9F09D
:100130008430B1F4809180008F7D03C08091800075
:100140008F7780938000089584B58F7784BD08955C
:1001500084B58F7DFBCF8091B0008F778093B00006
:1001600008958091B0008F7DF9CF1F93CF93DF93D7
:10017000282F30E0F901E255FF4F8491F901E6564E
:10018000FF4FD491F901EA57FF4FC491CC23A9F056
:10019000162F81110E948C00EC2FF0E0EE0FFF1F54
:1001A000E458FF4FA591B4918FB7F894EC911111D9
:1001B00008C0D095DE23DC938FBFDF91CF911F91D4
:1001C0000895DE2BF8CFCF93DF9390E0FC01E65645
:1001D000FF4F24918A579F4FFC0184918823C9F0D7
:1001E00090E0880F991FFC01EE58FF4FA591B49144
:1001F000FC01E458FF4FC591D49161110DC09FB728
:10020000F8948C91209582238C93888128232883CD
:100210009FBFDF91CF910895623051F49FB7F8945A
:100220003C91822F809583238C93E8812E2BEFCFF6
:100230008FB7F894EC912E2B2C938FBFEACF2FB76A
:10024000F894609121017091220180912301909195
:1002500024012FBF0895862F642F0C94E300CF93C1
:10026000DF93FC01218930E0F901E255FF4F8491D1
:10027000F901E656FF4FD491F901EA57FF4FC491B7
:10028000CC2379F081110E948C00EC2FF0E0EE0F6E
:10029000FF1FE859FF4FA591B491EC91ED2381E048
:1002A00009F480E08170DF91CF9108950E94770377
:1002B0001F93CF93DF93C82FD62F61E08AE00E946F
:1002C000B500ED2FF0E0E65FFE4F1081D8E0612F22
:1002D00061708CE00E94B500169561E08BE00E9491
:1002E000B50060E08BE00E94B500D15081F7EC2FA3
:1002F000F0E0E050FF4FD081C8E06D2F661F662709
:10030000661F8CE00E94B500DD0F61E08BE00E946B
:10031000B50060E08BE00E94B500C15071F760E06D
:100320008AE0DF91CF911F910C94B5001F920F923C
:100330000FB60F9211242F933F938F939F93AF93F8
:10034000BF938091210190912201A0912301B0914E
:1003500024013091200123E0230F2D3758F5019619
:10036000A11DB11D209320018093210190932201B2
:10037000A0932301B093240180911C0190911D0151
:10038000A0911E01B0911F010196A11DB11D809386
:100390001C0190931D01A0931E01B0931F01BF91FA
:1003A000AF919F918F913F912F910F900FBE0F9022
:1003B0001F90189526E8230F0296A11DB11DD2CFDC
:1003C000789484B5826084BD84B5816084BD85B530
:1003D000826085BD85B5816085BD80916E0081603C
:1003E00080936E00109281008091810082608093E2
:1003F00081008091810081608093810080918000E4
:100400008160809380008091B10084608093B1000E
:100410008091B00081608093B00080917A00846008
:1004200080937A0080917A00826080937A00809134
:100430007A00816080937A0080917A00806880934E
:100440007A001092C10061E08AE00E94E30061E05E
:100450008BE00E94E30061E08CE00E94E30062E038
:1004600082E00E94E30082E080933A011092310121
:1004700089E291E00E942F01882329F080913101C7
:100480008360809331010E941F0160932B01709360
:100490002C0180932D0190932E0189E190E090939F
:1004A000300180932F0110923B0100E010E0C091D9
:1004B0002701D0912801CA30D10528F46091250187
:1004C00080E00E945801CE010A970A9728F46091B3
:1004D000250181E00E945801CE0144970A9728F433
:1004E0006091250182E00E945801CE014E970A9743
:1004F00028F46091250183E00E945801CE0188977D
:100500000A9728F46091250184E00E945801CE01E9
:10051000C2970A9728F46091250185E00E9458014E
:10052000CE01CC970A9728F46091250186E00E94BD
:100530005801CE01865491090A9728F4609125014B
:1005400087E00E945801CE01805591090A9728F44E
:100550006091250188E00E945801CA55D1092A9767
:1005600028F46091250189E00E94580180913101B1
:100570008B7F8093310189E291E00E942F01C82F87
:100580008091310186958170C817D1F10E941F01B9
:1005900060932B0170932C0180932D0190932E0179
:1005A0008091310192E0892780933101809131015E
:1005B00082FF1FC0817090913B0198131AC08091F7
:1005C0002701909128010196843691050CF06CC0AA
:1005D0009093280180932701809125019091260115
:1005E00001968A3091050CF064C0909326018093A7
:1005F00025010115110509F45ACF0E94000057CFBB
:100600000E941F01C0902B01D0902C01E0902D0181
:10061000F0902E01AB01BC014C195D096E097F09F8
:1006200080912F0190913001B0E0A0E04817590768
:100630006A077B0708F4BACF809131018170C8172F
:1006400009F4B4CF0E941F0160932B0170932C0119
:1006500080932D0190932E018091310191E08927A3
:100660008460809331010E941F01C0903201D090BC
:100670003301E0903401F09035016C197D098E0949
:100680009F096093360170933701809338019093EE
:1006900039010E941F0160933201709333018093EE
:1006A00034019093350182CF1092280110922701D6
:1006B00093CF10922601109225019BCFE9E2F1E041
:1006C00012821382148215828AE090E097838683D7
:1006D0001086118A88E191E09183808381E0828B8A
:1006E0000895EE0FFF1F0590F491E02D099481E02D
:1006F00090E0F8940C947C03F894FFCFED24CE6E38
:10070000276BEB2DEF6FB7247376E4D6D7B4F7F6EB
:08071000000000002F012B0185
:107800000C94343C0C94513C0C94513C0C94513CE1
:107810000C94513C0C94513C0C94513C0C94513CB4
:107820000C94513C0C94513C0C94513C0C94513CA4
:107830000C94513C0C94513C0C94513C0C94513C94
:107840000C94513C0C94513C0C94513C0C94513C84
:107850000C94513C0C94513C0C94513C0C94513C74
:107860000C94513C0C94513C11241FBECFEFD8E036
:10787000DEBFCDBF11E0A0E0B1E0ECE9FFE702C060
:1078800005900D92A230B107D9F712E0A2E0B1E065
:1078900001C01D92AD30B107E1F70E942D3D0C945F
:1078A000CC3F0C94003C982F959595959595959582
:1078B000905D8F708A307CF0282F295A8091C0000B
:1078C00085FFFCCF9093C6008091C00085FFFCCF60
:1078D0002093C6000895282F205DF0CF982F809127
:1078E000C00085FFFCCF9093C6000895EF92FF92F1
:1078F0000F931F93EE24FF2487018091C00087FD22
:1079000017C00894E11CF11C011D111D81E4E8164B
:1079100082E4F8068FE0080780E0180770F3E09132
:107920000401F091050109958091C00087FFE9CF1E
:107930008091C6001F910F91FF90EF9008950E94D3
:10794000763C982F8091C00085FFFCCF9093C600B5
:1079500091362CF490330CF09053892F089597555D
:10796000892F08951F930E949F3C182F0E949F3CCF
:107970001295107F810F1F9108951F93182F882350
:1079800021F00E94763C1150E1F71F9108951F935A
:10799000182F0E94763C803249F0809103018F5F5E
:1079A000809303018530C1F01F9108958091C0003C
:1079B00085FFFCCF84E18093C6008091C00085FFE5
:1079C000FCCF1093C6008091C00085FFFCCF80E102
:1079D0008093C6001F910895E0910401F091050184
:1079E00009951F9108950E94763C803241F0809164
:1079F00003018F5F80930301853081F008958091AA
:107A0000C00085FFFCCF84E18093C6008091C00058
:107A100085FFFCCF80E18093C6000895E0910401CA
:107A2000F09105010995089540E951E08823A1F0FE
:107A30002D9A28EE33E0FA013197F1F721503040CA
:107A4000D1F72D9828EE33E0FA013197F1F7215064
:107A50003040D1F7815061F708953F924F925F9285
:107A60006F927F928F929F92AF92BF92CF92DF924E
:107A7000EF92FF920F931F93CF93DF93000080E16B
:107A80008093C4001092C50088E18093C10086E015
:107A90008093C2005098589A259A81E00E94143D24
:107AA00024E1F22E9EE1E92E85E9D82E0FE0C02ECA
:107AB00010E1B12EAA24A394B1E49B2EA6E58A2E50
:107AC000F2E57F2EE0E26E2E79E4572E63E5462E36
:107AD00050E5352E0E94763C8033B1F18133B9F107
:107AE000803409F46FC0813409F476C0823409F41B
:107AF00085C0853409F488C0803531F1823521F1A3
:107B0000813511F1853509F485C0863509F48DC0BC
:107B1000843609F496C0843709F403C1853709F423
:107B200072C1863709F466C0809103018F5F80932C
:107B30000301853079F6E0910401F0910501099582
:107B40000E94763C803351F60E94F33CC3CF0E94E2
:107B5000763C803249F78091C00085FFFCCFF092DF
:107B6000C6008091C00085FFFCCF9092C600809136
:107B7000C00085FFFCCF8092C6008091C00085FFC9
:107B8000FCCF7092C6008091C00085FFFCCF609250
:107B9000C6008091C00085FFFCCF5092C600809146
:107BA000C00085FFFCCF4092C6008091C00085FFD9
:107BB000FCCF3092C6008091C00085FFFCCFB09210
:107BC000C60088CF0E94763C863808F4BDCF0E945C
:107BD000763C0E94F33C7ECF0E94763C803809F4CC
:107BE0009CC0813809F40BC1823809F43CC1883942
:107BF00009F48FC080E00E94C73C6CCF84E10E94F2
:107C0000BD3C0E94F33C66CF85E00E94BD3C0E94D3
:107C1000F33C60CF0E94763C809306010E94763C44
:107C2000809307010E94F33C55CF0E94763C80333D
:107C300009F41DC183E00E94BD3C80E00E94C73C66
:107C400049CF0E94763C809309020E94763C809343
:107C5000080280910C028E7F80930C020E94763C79
:107C6000853409F415C18091080290910902892B8D
:107C700089F000E010E00E94763CF801E85FFE4FDA
:107C800080830F5F1F4F80910802909109020817AF
:107C9000190788F30E94763C803209F045CF809125
:107CA0000C0280FF01C16091060170910701660F0F
:107CB000771F7093070160930601A0910802B091AD
:107CC00009021097C9F0E8E0F1E09B01AD014E0F09
:107CD0005F1FF999FECF32BD21BD819180BDFA9A17
:107CE000F99A2F5F3F4FE417F50799F76A0F7B1F4B
:107CF00070930701609306018091C00085FFFCCF5F
:107D0000F092C6008091C00085FFFCCFB092C60003
:107D1000E1CE83E00E94C73CDDCE82E00E94C73CFA
:107D2000D9CE0E94763C809309020E94763C8093D3
:107D300008028091060190910701880F991F909386
:107D40000701809306010E94763C853409F4A6C0A1
:107D500080910C028E7F80930C020E94763C8032D0
:107D600009F0B8CE8091C00085FFFCCFF092C6002C
:107D7000609108027091090261157105B9F140E046
:107D800050E080910C02A82FA170B82FB27011C0E2
:107D9000BB2309F45CC0E0910601F0910701319624
:107DA000F0930701E09306014F5F5F4F46175707B7
:107DB000E8F4AA2369F3F999FECF209106013091E6
:107DC000070132BD21BDF89A90B58091C00085FFB2
:107DD000FCCF9093C6002F5F3F4F30930701209355
:107DE00006014F5F5F4F4617570718F38091C00099
:107DF00085FDE5CE8091C00085FFF8CFE0CE81E023
:107E00000E94C73C67CE0E94763C803209F08CCE3F
:107E10008091C00085FFFCCFF092C6008091C00029
:107E200085FFFCCFE092C6008091C00085FFFCCFAB
:107E3000D092C6008091C00085FFFCCFC092C600E2
:107E40008091C00085FFFCCFB092C60043CEE09188
:107E50000601F091070194918091C00085FFFCCF4D
:107E60009093C6009CCF80E10E94C73C33CE0E9415
:107E7000763C0E94763C182F0E94763C112309F430
:107E800083C0113009F484C08FE00E94C73C22CE29
:107E900080910C02816080930C02E5CE80910C02EF
:107EA000816080930C0259CF809107018823880F4D
:107EB000880B8A2180930B02809106019091070123
:107EC000880F991F90930701809306018091080203
:107ED00080FF09C080910802909109020196909359
:107EE000090280930802F894F999FECF1127E091D6
:107EF0000601F0910701C8E0D1E08091080290915D
:107F00000902103091F40091570001700130D9F34B
:107F100003E000935700E89500915700017001308D
:107F2000D9F301E100935700E89509901990009169
:107F3000570001700130D9F301E000935700E89534
:107F40001395103498F011270091570001700130FB
:107F5000D9F305E000935700E895009157000170B0
:107F60000130D9F301E100935700E895329602976A
:107F700009F0C7CF103011F00296E5CF112480919F
:107F8000C00085FFB9CEBCCE8EE10E94C73CA2CD19
:0E7F900085E90E94C73C9ECDF894FFCF80008B
:00000001FF
